:100000000C942A000C9498030C94C1030C94EA03FA
:100010000C9447000C9447000C9447000C94470044
:100020000C9447000C9447000C9471040C94480401
:100030000C9447000C9447000C9447000C94470024
:100040000C9447000C9447000C9447000C94470014
:100050000C94470011241FBECFE5D8E0DEBFCDBF12
:1000600010E0A0E6B0E0E0E2FDE002C005900D92F5
:10007000AE37B107D9F720E0AEE7B0E001C01D927E
:10008000AE38B207E1F70E943B010C948E060C9447
:10009000000080917E008F5F80937E0088EE93E069
:1000A0000E9424048AE10E94FE02811106C0809110
:1000B0007E00813011F48093830008950E944001F6
:1000C0000E9489030E94130478940895CF9389E4D1
:1000D00090E00E94930380916000813011F582E0EE
:1000E0000E94300180E00E94340181E00E943401CE
:1000F000C0E009C084EF91E00E942404CF5F8091AA
:100100008300811102C0CA30A8F38091830081303E
:1001100019F488E00E94300181E0809382001092FF
:10012000600080918200813009F049C082E00E9425
:10013000340180E00E94340180918300811126C047
:100140008AE00E94340188E00E943401C0E00CC0C3
:100150008AEF90E00E942404CF5F81E00E94380182
:1001600080918300811102C0C43190F3C43171F4D5
:100170008091810080FD04C091E09093800003C0D5
:1001800091E0909360008F5F809381008091830065
:10019000813099F40CC08AEF90E00E942404CF5F74
:1001A00081E00E94380189E00E94380101C0C0E06E
:1001B000C43188F381E080938000109282008091A6
:1001C0008000813009F04AC00E94340189E00E9419
:1001D000340180918300813059F580917F0080FD4A
:1001E00016C088E00E94340180E00E9430018AE05D
:1001F0000E943001C0E005C08AEF90E00E94240414
:10020000CF5FC431C8F380E00E9434010BC08AE0A4
:100210000E94340188E00E94300181E080936000F8
:100220001092830080917F008F5F80937F0011C0C8
:1002300080E00E9430018AE00E943001C0E007C0E7
:100240008AEF90E00E942404CF5F10928300C431B3
:10025000B8F381E08093820010928000CF910895DE
:1002600061E00E947D02089560E00E947D02089591
:100270000E94360308950E945E000E946600FDCF32
:1002800080E090E02EC1FC01EE0FFF1FEE0FFF1F7C
:10029000EF59FF4F2081211147C0FC01EE0FFF1FD6
:1002A000EE0FFF1FEF59FF4F2281213099F44AB31F
:1002B000FC01EE0FFF1FEE0FFF1FEF59FF4F21E074
:1002C00030E0018002C0220F331F0A94E2F7242B92
:1002D0002ABB06C14AB3FC01EE0FFF1FEE0FFF1F42
:1002E000EF59FF4F21E030E0018002C0220F331FA1
:1002F0000A94E2F7209524232ABB2381213009F0B8
:10030000EFC04BB3FC01EE0FFF1FEE0FFF1FEF59C5
:10031000FF4F21E030E0018002C0220F331F0A941A
:10032000E2F7242B2BBBDCC0213009F047C0FC01D5
:10033000EE0FFF1FEE0FFF1FEF59FF4F22812130FD
:1003400099F447B3FC01EE0FFF1FEE0FFF1FEF59AB
:10035000FF4F21E030E0018002C0220F331F0A94DA
:10036000E2F7242B27BBBCC047B3FC01EE0FFF1FF5
:10037000EE0FFF1FEF59FF4F21E030E0018002C078
:10038000220F331F0A94E2F72095242327BB2381F1
:10039000213009F0A5C048B3FC01EE0FFF1FEE0F9E
:1003A000FF1FEF59FF4F21E030E0018002C0220F14
:1003B000331F0A94E2F7242B28BB92C0223009F0A5
:1003C00047C0FC01EE0FFF1FEE0FFF1FEF59FF4F5D
:1003D0002281213099F444B3FC01EE0FFF1FEE0F90
:1003E000FF1FEF59FF4F21E030E0018002C0220FD4
:1003F000331F0A94E2F7242B24BB72C044B3FC01E0
:10040000EE0FFF1FEE0FFF1FEF59FF4F21E030E00F
:10041000018002C0220F331F0A94E2F720952423A3
:1004200024BB2381213009F05BC045B3FC01EE0FF2
:10043000FF1FEE0FFF1FEF59FF4F21E030E001805B
:1004400002C0220F331F0A94E2F7242B25BB48C0B9
:10045000233009F045C0FC01EE0FFF1FEE0FFF1F18
:10046000EF59FF4F2281213099F441B3FC01EE0F87
:10047000FF1FEE0FFF1FEF59FF4F21E030E001801B
:1004800002C0220F331F0A94E2F7242B21BB28C09D
:1004900041B3FC01EE0FFF1FEE0FFF1FEF59FF4F9F
:1004A00021E030E0018002C0220F331F0A94E2F7FE
:1004B0002095242321BB2381213091F442B3FC01F8
:1004C000EE0FFF1FEE0FFF1FEF59FF4F21E030E04F
:1004D000018002C0220F331F0A94E2F7242B22BBB3
:1004E0000196AC01092E000C660B770B47305105C5
:1004F0006105710508F4C7CE0895982F96959695D5
:100500009695877091111DC0613069F44BB321E05D
:1005100030E0B90102C0660F771F8A95E2F7CB0180
:10052000842B8BBB08954BB321E030E0B90102C0AE
:10053000660F771F8A95E2F7CB01809584238BBBEA
:1005400008959130E9F4613069F448B321E030E076
:10055000B90102C0660F771F8A95E2F7CB01842BA1
:1005600088BB089548B321E030E0B90102C0660FAE
:10057000771F8A95E2F7CB018095842388BB089585
:100580009230E9F4613069F445B321E030E0B9011B
:1005900002C0660F771F8A95E2F7CB01842B85BBDB
:1005A000089545B321E030E0B90102C0660F771F1E
:1005B0008A95E2F7CB018095842385BB089593301B
:1005C000E1F4613069F442B321E030E0B90102C0E6
:1005D000660F771F8A95E2F7CB01842B82BB0895C3
:1005E00042B321E030E0B90102C0660F771F8A955F
:1005F000E2F7CB018095842382BB0895982F9695CE
:1006000096959695482F477091110AC099B3892FF6
:1006100090E002C0959587954A95E2F7817008951C
:10062000913051F426B330E0C90102C09595879509
:100630004A95E2F781700895923051F423B330E087
:10064000C90102C0959587954A95E2F78170089592
:10065000933051F420B330E0C90102C095958795DD
:100660004A95E2F78170089580E00895982F969555
:1006700096959695877091110DC04BB321E030E0AF
:10068000B90102C0660F771F8A95E2F7CB01842774
:100690008BBB0895913069F448B321E030E0B90193
:1006A00002C0660F771F8A95E2F7CB01842788BBCB
:1006B0000895923069F445B321E030E0B90102C0F9
:1006C000660F771F8A95E2F7CB01842785BB0895D3
:1006D000933061F442B321E030E0B90102C0660F0B
:1006E000771F8A95E2F7CB01842782BB089581307A
:1006F00041F018F0823049F008958BB780648BBFC9
:1007000008958BB780688BBF08958BB780628BBFCD
:10071000089580E00E94770385B7816085BF85B723
:10072000826085BF08959093890080938800089522
:100730001F920F920FB60F9211242F933F934F9356
:100740005F936F937F938F939F93AF93BF93EF9339
:10075000FF93E0918800F0918900309709F00995A6
:10076000FF91EF91BF91AF919F918F917F916F9189
:100770005F914F913F912F910F900FBE0F901F905F
:1007800018951F920F920FB60F9211242F933F933B
:100790004F935F936F937F938F939F93AF93BF9389
:1007A000EF93FF93E0918400F0918500309709F07A
:1007B0000995FF91EF91BF91AF919F918F917F919B
:1007C0006F915F914F913F912F910F900FBE0F90BE
:1007D0001F9018951F920F920FB60F9211242F930E
:1007E0003F934F935F936F937F938F939F93AF93B9
:1007F000BF93EF93FF93E0918600F09187003097CD
:1008000009F00995FF91EF91BF91AF919F918F9161
:100810007F916F915F914F913F912F910F900FBEFC
:100820000F901F90189583B7816083BF83B78D7F2A
:1008300083BF83B7846083BF83B78F7B83BF83B756
:10084000877F83BF12BE0895BC0180E090E00E94C4
:1008500052052FE632E143E85AE30E9421062DEBD0
:1008600037E346E05DE30E94B1040E949A040E94CF
:10087000230520E030E008C008B600FEFDCF88B7B1
:10088000816088BF2F5F3F4F26173707A8F3089571
:100890001F920F920FB60F9211242F933F934F93F5
:1008A0005F936F937F938F939F93AF93BF93EF93D8
:1008B000FF93E0918C00F0918D00309709F009953D
:1008C000FF91EF91BF91AF919F918F917F916F9128
:1008D0005F914F913F912F910F900FBE0F901F90FE
:1008E00018951F920F920FB60F9211242F933F93DA
:1008F0004F935F936F937F938F939F93AF93BF9328
:10090000EF93FF93E0918A00F0918B00309709F00C
:100910000995FF91EF91BF91AF919F918F917F9139
:100920006F915F914F913F912F910F900FBE0F905C
:100930001F9018950E94020690F09F3748F491117D
:1009400016F40C941B0660E070E080E89FE30895C5
:1009500026F01B16611D711D811D0C9495050C94CC
:10096000B0050E94C5040C94CF050E94C80558F03C
:100970000E94C10540F029F45F3F29F00C948F05D7
:1009800051110C941B060C94BE050E94E00568F3FF
:100990009923B1F3552391F3951B550BBB27AA2738
:1009A00062177307840738F09F5F5F4F220F331F72
:1009B000441FAA1FA9F335D00E2E3AF0E0E832D03A
:1009C00091505040E695001CCAF72BD0FE2F29D03D
:1009D000660F771F881FBB1F261737074807AB070F
:1009E000B0E809F0BB0B802DBF01FF2793585F4F84
:1009F0003AF09E3F510578F00C948F050C941B063D
:100A00005F3FE4F3983ED4F3869577956795B79565
:100A1000F7959F5FC9F7880F911D9695879597F970
:100A20000895E1E0660F771F881FBB1F62177307E9
:100A30008407BA0720F0621B730B840BBA0BEE1FFE
:100A400088F7E09508950E94E80588F09F5798F090
:100A5000B92F9927B751B0F0E1F0660F771F881FC3
:100A6000991F1AF0BA95C9F714C0B13091F00E94DD
:100A70001A06B1E008950C941A06672F782F88277C
:100A8000B85F39F0B93FCCF3869577956795B39504
:100A9000D9F73EF490958095709561957F4F8F4F73
:100AA0009F4F0895E89409C097FB3EF49095809578
:100AB000709561957F4F8F4F9F4F9923A9F0F92F24
:100AC00096E9BB279395F695879577956795B795A2
:100AD000F111F8CFFAF4BB0F11F460FF1BC06F5F88
:100AE0007F4F8F4F9F4F16C0882311F096E911C09A
:100AF000772321F09EE8872F762F05C0662371F0BB
:100B000096E8862F70E060E02AF09A95660F771FCE
:100B1000881FDAF7880F9695879597F9089597F9C2
:100B20009F6780E870E060E00895882371F4772380
:100B300021F09850872B762F07C0662311F4992750
:100B40000DC09051862B70E060E02AF09A95660FF8
:100B5000771F881FDAF7880F9695879597F908957C
:100B60009F3F31F0915020F4879577956795B79521
:100B7000880F911D9695879597F908959FEF80ECC2
:100B8000089500240A9416161706180609060895F3
:100B900000240A9412161306140605060895092E59
:100BA0000394000C11F4882352F0BB0F40F4BF2BC8
:100BB00011F460FF04C06F5F7F4F8F4F9F4F089508
:100BC00057FD9058440F551F59F05F3F71F04795FE
:100BD000880F97FB991F61F09F3F79F087950895E3
:100BE000121613061406551FF2CF4695F1DF08C002
:100BF000161617061806991FF1CF8695710561051F
:100C0000089408950E94E805A0F0BEE7B91788F49B
:100C1000BB279F3860F41616B11D672F782F8827E1
:100C2000985FF7CF869577956795B11D939596391F
:100C3000C8F30895E894BB2766277727CB0197F977
:100C400008950E9434060C94CF050E94C10538F027
:100C50000E94C80520F0952311F00C948F050C9488
:100C6000BE0511240C941B060E94E00570F3959FAD
:100C7000C1F3950F50E0551F629FF001729FBB2793
:100C8000F00DB11D639FAA27F00DB11DAA1F649F2F
:100C90006627B00DA11D661F829F2227B00DA11DE2
:100CA000621F739FB00DA11D621F839FA00D611D68
:100CB000221F749F3327A00D611D231F849F600D89
:100CC000211D822F762F6A2F11249F5750409AF0B2
:100CD000F1F088234AF0EE0FFF1FBB1F661F771F3E
:100CE000881F91505040A9F79E3F510580F00C9409
:100CF0008F050C941B065F3FE4F3983ED4F3869572
:100D000077956795B795F795E7959F5FC1F7FE2BA8
:100D1000880F911D9695879597F90895F894FFCFC0
:100D200001000001000001010000020100010001BA
:0E0D30000001010100010201000302000000A9
:00000001FF
